:020000040800F2
:10000000A82C002041060008970F0008A50B000847
:10001000950F0008850900088519000800000000F8
:10002000000000000000000000000000D5110008E2
:100030008709000800000000990F0008D711000888
:100040005B0600085B0600085B0600085B0600080C
:100050005B0600085B0600085B0600085B060008FC
:100060005B0600085B0600085B0600085B060008EC
:100070005B0600085B0600085B0600085B060008DC
:100080005B0600085B0600085B0600085B060008CC
:100090005B0600085B0600085B0600085B060008BC
:1000A0005B0600085B0600085B0600085B060008AC
:1000B000C9120008A91300085B0600085B060008C7
:1000C0005B0600085B0600085B0600085B0600088C
:1000D0005B060008351800085B0600085B06000890
:1000E0005B0600085B0600085B06000800000000D5
:1000F0000000000000000000000000000000000000
:1001000000000000000000005B0600085B0600081D
:100110005B0600085B0600085B0600085B0600083B
:100120005B0600085B0600085B0600085B0600082B
:100130005B0600085B0600085B0600085B0600081B
:100140005B0600085B0600085B0600085B0600080B
:10015000DFF80CD000F0C6FA00480047C5310008AF
:10016000A82C00202DE9F0474FF00006089A31F93D
:10017000027B31F9028BB0F90040B0F9025004FB68
:1001800007F305FB083331F9027BB0F9044031F97C
:10019000028BB0F9065004FB073305FB083331F935
:1001A000027BB0F9084031F9028BB0F90A5004FB28
:1001B000073305FB083331F9027BB0F90C4031F904
:1001C000028BB0F90E5004FB073305FB083331F9FD
:1001D000027BB0F9104031F9028BB0F9125004FBE8
:1001E000073305FB083352F8044BC3EB6403012EBD
:1001F000AEBF73459E46B246761C202EB7DB0A9BE7
:10020000C3F800A00B9BC3F800E0BDE8F087000036
:100210002DE9F05FDDF828C0DDF830E0DEF80040C1
:1002200030F902AB04F580590AEB693909F30F0B79
:1002300023F802BBCBF1000B0FFA8BFBB1F9007076
:10024000DEF8045007FB0A55B2F9008008FB0B5496
:10025000CEF80040B1F90270DEF8084007FB0A440E
:10026000B2F9028008FB0B45CEF80450B1F90470D6
:10027000DEF80C5007FB0A55B2F9048008FB0B545A
:10028000CEF80840B1F90670DEF8104007FB0A44CA
:10029000B2F9068008FB0B45CEF80C50B1F9087096
:1002A000DEF8145007FB0A55B2F9088008FB0B541E
:1002B000CEF81040B1F90A70DEF8184007FB0A4486
:1002C000B2F90A8008FB0B45CEF81450B1F90C7056
:1002D000DEF81C5007FB0A55B2F90C8008FB0B54E2
:1002E000CEF81840B1F90E70DEF8204007FB0A4442
:1002F000B2F90E8008FB0B45CEF81C50B1F9107016
:10030000DEF8245007FB0A55B2F9108008FB0B54A5
:10031000CEF82040B1F9127007FB0AF7B2F912804B
:1003200008FB0BF8B844CEF82480BCF1010C7FF434
:1003300075AFBDE8F09F2DE9F041DDF81CE0DEF877
:10034000005030F9028B05F5805708EB673808F349
:100350000F0622F8026BC6F1000636B2B1F9007042
:10036000DEF8044007FB0645CEF80050B1F90270F4
:10037000DEF8085007FB0654CEF80440B1F90470CB
:10038000DEF80C4007FB0645CEF80850B1F90670C0
:10039000DEF8105007FB0654CEF80C40B1F9087097
:1003A000DEF8144007FB0645CEF81050B1F90A708C
:1003B000DEF8185007FB0654CEF81440B1F90C7063
:1003C000DEF81C4007FB0645CEF81850B1F90E7058
:1003D000DEF8205007FB0654CEF81C40B1F910702F
:1003E000DEF8244007FB0645CEF82050B1F9127024
:1003F00007FB06F7CEF824705B1EA0D1BDE8F081A4
:100400002DE9F0414FF000064FF0000330F9024BA8
:1004100031F9027B04FB073330F9025B31F9028BBF
:1004200005FB083330F9024B31F9027B04FB07333B
:1004300030F9025B31F9028B05FB083306EBA3169A
:100440004FF0000330F9024B31F9027B04FB073314
:1004500030F9025B31F9028B05FB083330F9024BAE
:1004600031F9027B04FB073330F9025B31F9028B6F
:1004700005FB083306EBA3164FF0000330F9024BDF
:1004800031F9027B04FB073330F9025B31F9028B4F
:1004900005FB083330F9024B31F9027B04FB0733CB
:1004A00030F9025B31F9028B05FB083306EBA3162A
:1004B0004FF0000330F9024B31F9027B04FB0733A4
:1004C00030F9025B31F9028B05FB083330F9024B3E
:1004D00031F9027B04FB073330F9025B31F9028BFF
:1004E00005FB083306EBA3164FF0000330F9024B6F
:1004F00031F9027B04FB073330F9025B31F9028BDF
:1005000005FB083330F9024B31F9027B04FB07335A
:1005100030F9025B31F9028B05FB083306EBA316B9
:100520004FF0000330F9024B31F9027B04FB073333
:1005300030F9025B31F9028B05FB083330F9024BCD
:1005400031F9027B04FB073330F9025B31F9028B8E
:1005500005FB083306EBA3164FF0000330F9024BFE
:1005600031F9027B04FB073330F9025B31F9028B6E
:1005700005FB083330F9024B31F9027B04FB0733EA
:1005800030F9025B31F9028B05FB083306EBA31649
:100590004FF0000330F9024B31F9027B04FB0733C3
:1005A00030F9025B31F9028B05FB083330F9024B5D
:1005B00031F9027B04FB073330F9025B31F9028B1E
:1005C00005FB083306EBA3164FF0000330F9024B8E
:1005D00031F9027B04FB073330F9025B31F9028BFE
:1005E00005FB083330F9024B31F9027B04FB07337A
:1005F00030F9025B31F9028B05FB083306EBA316D9
:100600004FF0000330F9024B31F9027B04FB073352
:1006100030F9025B31F9028B05FB083330F9024BEC
:1006200031F9027B04FB073330F9025B31F9028BAD
:1006300005FB083306EBA3163046BDE8F081000049
:100640000648804706480047FEE7FEE7FEE7FEE76C
:10065000FEE7FEE7FEE7FEE7FEE7FEE7D91100084A
:100660005101000810B5431A934209D28318881823
:1006700003E010F8011D03F8011D521EF9D210BD50
:1006800040EA01039B0703D009E008C9121F08C014
:10069000042AFAD203E011F8013B00F8013B521E94
:1006A000F9D210BDD2B201E000F8012B491EFBD2F5
:1006B00070470022F6E710B513460A46044619466D
:1006C000FFF7F0FF204610BD10B54843044601F087
:1006D0004DFB002805D00021002C02D0641E0155DE
:1006E000FAE710BD064C074D06E0E06840F0010354
:1006F00094E8070098471034AC42F6D3FFF72CFD7E
:1007000048980008689800082DE9F041DDF81CE0E1
:10071000DEF8004030F9026B04F5805806EB6838CB
:1007200008F30F0722F8027BB1F90070DEF80450DD
:1007300007FB0654CEF80040B1F90270DEF808401D
:1007400007FB0645CEF80450B1F90470DEF80C50F2
:1007500007FB0654CEF80840B1F90670DEF81040E9
:1007600007FB0645CEF80C50B1F90870DEF81450BE
:1007700007FB0654CEF81040B1F90A70DEF81840B5
:1007800007FB0645CEF81450B1F90C70DEF81C508A
:1007900007FB0654CEF81840B1F90E70DEF8204081
:1007A00007FB0645CEF81C50B1F91070DEF8245056
:1007B00007FB0654CEF82040B1F9127007FB06F78C
:1007C000CEF824705B1EA3D1BDE8F08100298168BA
:1007D00014BF41F0010121F001018160704710B5A3
:1007E000A0F18041B1F5923111D0B1F5806119D0FD
:1007F000B1F5A05118BF10BD0121C80300F0F2FBF4
:10080000BDE8104000214FF4004000F0EBBB012197
:10081000480200F0E7FBBDE8104000214FF40070F3
:1008200000F0E0BB0121880200F0DCFBBDE81040D5
:1008300000214FF4806000F0D5BB0146002089689C
:1008400011F0040F18BF01207047C06C80B27047D0
:100850000246002012680A4218BF01207047014674
:100860000020896811F0080F18BF012070470000B0
:10087000426891F804C022F4807222F470220B685E
:1008800042EA0C221A43426082680B4B1A40D1E9BB
:1008900002C343EA0C0391F805C042EA4C021A4332
:1008A0008260C26A097C22F47002491EC9B242EA1F
:1008B0000151C16270470000FDF7F1FF30B4072518
:1008C00009290CD9C468A1F10A0C0CEB4C0C05FAEF
:1008D0000CF5AC4303FA0CF32343C36009E004694D
:1008E00001EB410C05FA0CF5AC4303FA0CF323437E
:1008F00003614FF01F0C072A0CD2436B521E02EB10
:1009000082020CFA02FC23EA0C0391401943416372
:1009100030BC70470D2A0CD2036BD21F02EB82024F
:100920000CFA02FC23EA0C0391401943016330BC2A
:100930007047C36A0D3A02EB82020CFA02FC23EA0A
:100940000C0391401943C16230BC7047816841F08B
:100950000801816070470029816814BF41F4A0013B
:1009600021F4A00181607047816841F00401816039
:10097000704700210160017141718160C1600121F6
:1009800001747047FEE7704730B505464FF43020DC
:1009900000F06EF8042818BF30BD0A4C206940F002
:1009A000020020616561206940F0400020614FF441
:1009B000302000F05DF8216941F6FD72114021619F
:1009C00030BD00000020024009490420CA6812F02E
:1009D000010F1CBF01207047CA6812F0040F1CBF32
:1009E00002207047C96811F0100F18BF032070472C
:1009F0000020024004490A6822F010020A600A68D6
:100A000010430860704700000020024070B50646A1
:100A10000D464FF4005000F02BF8042818BF70BDAD
:100A2000074C206940F00100206135804FF40050F0
:100A300000F01EF8216941F6FE721140216170BD7F
:100A400000200240034A116801F038010843106099
:100A500070470000002002400348024941600349FA
:100A6000416070472301674500200240AB89EFCD0C
:100A700000B50346FFF7A8FF0F4912E0CA6804203B
:100A800012F0010F18BF01200AD1CA6812F0040F3A
:100A900018BF022004D1CA6812F0100F18BF03203B
:100AA0005B1E012804D0002B18BF00BD052000BD2F
:100AB000002BE3D1FAE70000002002402DE9F0010D
:100AC00091F803C000220CF00F031CF0100F1CBFA4
:100AD00091F802C04CEA030391F800C04FF00F07F1
:100AE0001CF0FF0F4FF0010618BF04681CD00D88E2
:100AF00006FA02FC05EA0C05654511D1950007FAD6
:100B000005F824EA080403FA05F52C43CD78282DCE
:100B100008BFC0F814C003D0482D08BFC0F810C0EB
:100B2000521C082AE3D304600A88FF2A87BF44685E
:100B30000022BDE8F001704702F1080C0D8806FAAA
:100B40000CFC05EA0C05654511D1950007FA05F87E
:100B500024EA080403FA05F52C43CD78282D08BFB4
:100B6000C0F814C0CD78482D08BFC0F810C0521C82
:100B7000082AE1D34460BDE8F00170470246002036
:100B800092680A4218BF012070474FF6FF7101803A
:100B9000022181700421C1707047002A14BF0161D5
:100BA00041617047FEE7000070B5254886B000241B
:100BB000012544718571294640F2046000F006FA6F
:100BC000204E3046FFF70BFE0220ADF800008DF8F6
:100BD00002408DF8034069461B48FFF76FFF01A8EC
:100BE000FFF7C7FE8DF8084001948DF809404FF4D7
:100BF0006020CDE903048DF8145001A93046FFF7B9
:100C000037FE01213046FFF7E1FD4020ADF800003E
:100C100004250E4E8DF8035003248DF802406946DA
:100C20003046FFF74BFFE902ADF800108DF8035096
:100C30008DF8024069463046FFF740FF06B070BDB0
:100C40000000002000240140000801400010014085
:100C50000E4908684FF6FF02104040F4C06040F0B3
:100C6000FD7040F0806008600949002081F80004B0
:100C70004FF0E0214FF08052C1F80021054A82F880
:100C800000044FF00050C1F8000170470CED00E087
:100C90001CE000E01DE000E00020044A0146115481
:100CA000401CB0F5FC7FFADB704700009800002084
:100CB00010B504460021212000F0C2F844F0800065
:100CC000002100F0BDF80021BDE81040202000F018
:100CD000B7B8000070B588B0012141F21C0000F0E7
:100CE00075F9E020ADF8140003258DF81650182092
:100CF0008DF8170005A94D48FFF7E0FE0420ADF878
:100D000014004B4E8DF8165010248DF8174005A98D
:100D10003046FFF7D3FE012204213046FFF73DFFA6
:100D20004FF49060ADF81400424E8DF816508DF8D7
:100D3000174005A93046FFF7C1FE01229102304657
:100D4000FFF72BFF012280213046FFF726FF00240A
:100D5000ADF800404FF48270ADF80200ADF80440E9
:100D600002200121ADF80600ADF808100002ADF830
:100D70000A000720304DADF80C40ADF81000ADF87A
:100D80000E406946284600F0FBF90121284600F094
:100D9000E5F9002280213046FFF7FFFE42F2107590
:100DA00029460695491E0691FCD101228021304634
:100DB000FFF7F3FE28460695401E0690FCD1002161
:100DC000212000F03DF80021C82000F039F8002172
:100DD000062000F035F80021132000F031F8002142
:100DE000202000F02DF80021082000F029F8002133
:100DF0000C2000F025F8114D00202C54401CB0F5BB
:100E0000FC7FFADB0021802000F01AF8002140204E
:100E100000F016F800240121285D00F011F8641C90
:100E2000B4F5FC7FF7DB08B070BD0000000801409E
:100E3000000C0140001001400030014098000020EB
:100E400070B5164D0C46064600224FF480612846C8
:100E5000FFF7A3FE1248012C1BD000220421FFF74C
:100E60009CFE104C0221204600F081F90028F9D0A8
:100E70003146204600F082F90121204600F077F942
:100E80000028F9D02846BDE8704001229102FFF702
:100E900084BE01220421FFF780FEE2E7001001403A
:100EA000000C0140003001402DE9F0070B780024D0
:100EB000002B04BFBDE8F00770474FF0FF09C0EBFF
:100EC000C00303EB4306DFF89880264F0D784FF000
:100ED000000302B3542C98BF302838D804EB440CDC
:100EE0004FEA0C1C0CEB461C05EB85054FEADC0CAD
:100EF000454405EB030A042B1AF8A0AC6FEA0A0A72
:100F000007F80CA00CF1010C08BF07F80C905B1C53
:100F1000052BEED31BE0542C98BF302817D804EBD8
:100F2000440C4FEA0C1C0CEB461C05EB85054FEA04
:100F3000DC0C05EB080A0AEB03055B1C15F8A05C4A
:100F40006D0007F80C500CF1010C052BF3D3631C5A
:100F5000DCB211F8013F002BB8D1BDE8F0077047B3
:100F6000407300089800002070B500218020FFF732
:100F700067FF00214020FFF763FF054D002401219A
:100F8000285DFFF75DFF641CB4F5FC7FF7DB70BDE7
:100F900098000020FEE7704770470000044A0029CF
:100FA000D16914BF084321EA0000D06170470000F6
:100FB00000100240044A0029116914BF084321EAC5
:100FC000000010617047000000100240044A002930
:100FD000916914BF084321EA000090617047000046
:100FE00000100240044A0029D16814BF084321EAD6
:100FF0000000D06070470000001002400D480168FA
:1010000041F00101016041680B4A114041600168F3
:1010100021F4102121F080710160016821F4802108
:101020000160416821F4FE0141604FF41F018160BD
:1010300070470000001002400000FFF80022410944
:10104000094B012908BF196803D002290CBF196A8E
:10105000596A00F01F00012303FA00F0084218BF8C
:10106000012210467047000000100240024840680C
:1010700000F00C007047000000100240034A516865
:1010800021F0F0010843506070470000001002405A
:101090000C490A6822F480320A600A6822F480222D
:1010A0000A60B0F5803F04BF086840F4803006D085
:1010B000B0F5802F06BF086840F4A0207047086094
:1010C0007047000000100240034A516821F4E061BB
:1010D000084350607047000000100240034A516806
:1010E00021F4605141EAC000506070470010024096
:1010F000014908667047000000004242034B5A68ED
:10110000084322F47C1210435860704700100240DC
:10111000034A516821F00301084350607047000002
:101120000010024008B500200B4A00900020116812
:1011300011F4003F18BF01200099491C0091B1F53E
:10114000A06F01D00028F1D03120FFF777FF0028F1
:1011500018BF012008BD00000010024000290188CE
:1011600014BF41F0400121F0400101807047024668
:10117000002012890A4218BF012070478181704700
:1011800010B402880B88B1F802C0CC8843EA0C0383
:10119000B1F804C002F441524CEA040C43EA0C03D7
:1011A000B1F808C043EA0C03B1F80AC043EA0C03E3
:1011B000B1F80CC043EA0C03B1F80EC043EA0C03CB
:1011C0001A430280828B22F400628283098A0182A0
:1011D00010BC704770477047374882B0016841F0D3
:1011E000010101604268354911404160016821F404
:1011F000102121F080710160016821F480210160DB
:10120000416821F4FE0141604FF41F01816000221A
:1012100000920192016841F480310160016801F49B
:10122000003101910099491C0091019919B9009967
:10123000B1F5A06FF2D1016811F4003F08BF01922F
:1012400033D0012101911E490A6842F010020A6060
:101250000A6822F003020A600A6842F002020A6089
:101260004168416041684160416841F4806141608A
:10127000416821F47C114160416841F4E81141600A
:10128000016841F080710160016811F0007FFBD0BE
:10129000416821F003014160416841F00201416071
:1012A000416801F00C010829FAD106494FF00060AD
:1012B000086002B070470000001002400000FFF814
:1012C0000020024008ED00E041F2941110B408073C
:1012D00081854FF6FE71018227494FF0020C4FF0D5
:1012E0000103087890F0010008701ED0234A1168AD
:1012F000B1F900005C0204EBA010214C20802148D1
:10130000214C8142A0F27E2001BF106084F800C011
:1013100010BC704700F59F7C18480068801C614530
:10132000106008BF237010BC704718480178184A35
:101330000229106809D11749096881F40041018028
:1013400015490C6844F4A0040C601449144C8842FC
:1013500006D184F800C0A1F27E20106010BC704756
:101360000B49DFF840C00968891C604508BF23703D
:10137000116010BC704700008B000020140000209A
:10138000342C01408E0700200100002002000020C4
:10139000100000204C240140082401400E050020CC
:1013A00000000020CE03002070B5314942F2283001
:1013B000088030494FF6FE7008802F4C20780225B7
:1013C0004FF0010C002831D02C4800682C4A80F4E2
:1013D0000040116808802B48036843F4A0030360B1
:1013E00029482A4E2A4B814207D13570A0F27E202F
:1013F00010601868401C18600DE02148254D0068F9
:10140000801CA94218BF106005D186F800C0196879
:10141000491C196010601868A0F53061B83918BF10
:1014200070BD00F053FC0020207070BD1A48007899
:10143000002808BF70BD194A1068B0F900104FF4B9
:10144000007303EBA111164B1980164C164B811C2F
:10145000A04202BF83F800C0116070BDDFF84CC02D
:1014600060451CBF116070BD114810601D7070BDDB
:101470002C04004010040040030000204C240140D4
:1014800010000020082401400E050020000000206C
:101490001C000020CE0300200400002014000020C7
:1014A000342C01404E060020010000208E07002051
:1014B000100500200029018814BF41F0800121F0AF
:1014C0008001018070470029018814BF41F00101AB
:1014D00021F00101018070470029B0F8441014BFC9
:1014E00041F40041C1F30E01A0F84410704710B55B
:1014F000A0F18041B1F596313BD0B0F1804F4DD095
:1015000011F5943140D0B1F5806151D0B1F58061D1
:1015100058D0B1F580615FD0B1F5806166D0B1F58A
:1015200090316DD0B1F5C05175D0B1F580617DD0ED
:10153000B1F580617DD011F59E317BD0B1F5806130
:1015400079D0B1F5806177D0B1F5903175D0B1F532
:10155000806173D0B1F5806118BF10BD012188048E
:10156000FFF740FDBDE8104000214FF48020FFF759
:1015700039BD0121C802FFF735FDBDE8104000214B
:101580004FF40060FFF72EBD01210220FFF712FD8E
:101590000021BDE810400220FFF70CBD01210846E4
:1015A000FFF708FD0021BDE810400120FFF702BD54
:1015B00001210420FFF7FEFC0021BDE810400420BB
:1015C000FFF7F8BC01210820FFF7F4FC0021BDE87B
:1015D00010400820FFF7EEBC01211020FFF7EAFCC5
:1015E0000021BDE810401020FFF7E4BC01212020BD
:1015F000FFF7E0FC0021BDE810402020FFF7DABC37
:1016000001214803FFF7EEFCBDE8104000214FF434
:101610000050FFF7E7BC0121C804FFF7E3FCBDE879
:10162000104000214FF40020FFF7DCBC0121080529
:1016300005E00DE017E020E029E033E03DE0FFF7B2
:10164000D1FCBDE8104000214FF48010FFF7CABC68
:1016500001214805FFF7C6FCBDE8104000214FF40A
:101660000010FFF7BFBC01214020FFF7A3FC0021C1
:10167000BDE810404020FFF79DBC01218020FFF70E
:1016800099FC0021BDE810408020FFF793BC0121A8
:101690000802FFF78FFCBDE8104000214FF4807076
:1016A000FFF788BC01210804FFF79CFCBDE810404F
:1016B00000214FF48030FFF795BC01214804FFF76B
:1016C00091FCBDE8104000214FF40030FFF78ABCC8
:1016D000002A828914BF114322EA010181817047E7
:1016E00010B4028C22F001020284028C8388B0F8CC
:1016F00018C00C882CF0730C44EA0C0C0C8922F0F6
:10170000020222434C882243A0F18044B4F596346F
:101710001CBFA0F18044B4F59A340DD0A0F18044F0
:10172000B4F5A0341FBFA0F18044B4F5A234A0F1F9
:101730008044B4F5A4340DD14C8922F00802224330
:101740008C8822F0040222438C8923F440732343C3
:10175000CC8923438380A0F818C0C988818602847D
:1017600010BC7047028B22F00802114301837047BE
:101770000021018041808180C1800181418181817E
:10178000C181704710B40288DFF88CC0234B6045DC
:1017900018BF984211D0B0F1804F1CBFA0F1804417
:1017A000B4F5806409D0A0F18044B4F500641CBF96
:1017B000A0F18044B4F5406403D14C8822F070025B
:1017C0002243A0F18044B4F580541CBFA0F18044B2
:1017D000B4F5A05403D0CC8822F440722243028096
:1017E0008A8882850A880285604518BF98420DD094
:1017F000A0F18042B2F5A0321FBFA0F18042B2F545
:10180000A232A0F18042B2F5A43201D1097A018658
:101810000121818210BC7047002C0140003401403E
:101820004FF6FF71818000210180C18041800172EB
:101830007047000010B5194C40F22551204600F0C9
:1018400033F8002808BF10BD204600F04EF8144AB7
:10185000C1B2108810F4004F18BF10BD10F4804FB3
:101860004FF0000306D00A2908BF40F4004012D010
:10187000138010BD0D2908BF40F480400BD0C0F389
:101880000D0C084C401C80B204F80C101080C728C6
:1018900098BF10BDECE7108010BD0000003801407B
:1018A0008C000020DC07002010B401F01F0201248E
:1018B000C1F3421304FA02F24FF0000C012B04BFF3
:1018C00083891A4004D0022B0CBF038A838A1A40F2
:1018D000090A008804FA01F10840002A1CBF002808
:1018E0004FF0010C604610BC70478088C0F30800C0
:1018F0007047000030B51EA185B0096800911DA198
:101900000128096801911CA1096802911BA10968BD
:10191000039108BF6C4607D0022808BF01AC03D072
:1019200003280CBF02AC03ACFFF7B6F90022144940
:101930001046FFF7B9FA124D227805F10F01022087
:10194000FFF7B2FA627805F11E010320FFF7ACFA47
:10195000A27805F12D010420FFF7A6FAE27805F13F
:101960003C010520FFF7A0FAFFF7FEFA05B030BDF5
:101970000100000000010000000001000000000163
:1019800040000020FEE700002DE9F0478EB0002463
:101990008DF81F40DFF8B0818DF81E400225ADF8AC
:1019A0001C5007A94046FFF789F84FF460200A90C1
:1019B000A802664F8DF8244001260B9008948DF8FC
:1019C00025408DF8306008A93846FEF751FF012206
:1019D000022311463846FEF771FF01213846FEF713
:1019E000F5FE3846FEF7B2FF3846FEF738FF00280E
:1019F000FAD13846FEF7B8FF3846FEF71EFF00283A
:101A0000FAD1DFF84CA15046FFF771FD6846FFF7A9
:101A1000AFFE04A8FFF704FF07A8FFF7B6F81820E9
:101A20008DF81F004FF48079ADF81C9003278DF8D6
:101A30001E7007A94046FFF741F840F2FF30ADF8AD
:101A40001400ADF81040ADF81640ADF812408DF816
:101A5000184004A95046FFF795FE6020ADF800003D
:101A60000420ADF80400C001ADF80600ADF8085040
:101A7000ADF80C90ADF80260ADF80A40ADF80E403C
:101A800069465046FFF72CFE08215046FFF76AFED4
:101A900001215046FFF70EFD4FF08040FFF727FD74
:101AA0006846FFF765FE04A8FFF7BAFE41F29410FE
:101AB000ADF81400ADF81040ADF81640ADF8124086
:101AC00004A90007FFF75EFE2025ADF80050ADF831
:101AD000064069466806FFF703FE00216806FFF727
:101AE00041FE1C4E3046FFF702FD6846FFF740FE00
:101AF00004A8FFF795FE42F22830ADF81400ADF8C7
:101B00001040ADF81640ADF8124004A93046FFF77A
:101B100039FEADF80050ADF8064069463046FFF793
:101B2000DFFD00213046FFF71DFE0820ADF81C0048
:101B300010208DF81F008DF81E7007A90648FEF7CB
:101B4000BDFF0EB0BDE8F087000801400024014051
:101B5000002C0140000400400010014010B501219C
:101B60001048FEF7F8FE104C01212046FFF7ABFCB1
:101B700001212046FFF7B0FC41F29411080781854E
:101B8000018841F0010101804FF6FE7101828189D7
:101B900041F0010181810022BDE810400821034885
:101BA000FEF7FBBF00240140002C01400010014063
:101BB00010B500210E48FEF7CEFE0E4C0021204647
:101BC000FFF781FC00212046FFF786FC00214FF043
:101BD0008040FFF778FC012100228807FFF778FD9D
:101BE0000122BDE8104008210348FEF7D6BF0000DF
:101BF00000240140002C01400010014010B5114CA0
:101C000001212046FFF75FFC01212046FFF764FC1D
:101C10000D4942F2283008800C48018841F001014A
:101C200001800B494FF6FE700880081F018841F0C3
:101C3000010101800022BDE8104008210548FEF79F
:101C4000ACBF0000002C01402C0400400004004008
:101C5000100400400010014070B5FEF7FDFE064D77
:101C6000002405EB8420FEF78FFE641C3B2C28BF6C
:101C700070BD0428F5D070BD00C8000810B5012261
:101C800008210D48FEF789FF01210C48FEF763FE8D
:101C90000B4942F2283008800A48018841F00101CE
:101CA000018009494FF6FE700880081F018841F045
:101CB0000101018010BD000000100140002401401E
:101CC0002C040040000400401004004010B5002126
:101CD0000B48FEF740FE0B4C00212046FFF7F3FBBC
:101CE000094A4FF6FE711180002201212046FFF7BC
:101CF000EFFC0122BDE8104008210448FEF74DBF6B
:101D00000024014000040040100400400010014085
:101D100030B528B1144C031F002021680A4605E0A5
:101D2000084630BD9A4203D810465268002AF9D1BD
:101D3000002800D041680BD00468A3EB0005A54241
:101D400004D11B681C440346046002E0436000E0C9
:101D500023603AB11C68D51AA54203D115682C44FA
:101D60001C6052685A6030BD900000202DE9F04799
:101D700082460F4C10480D4E0E4F001B4FF00008CE
:101D800020F007054FF0010900221146504600F0EF
:101D9000DBFB002802D1306810B10020BDE8F087DD
:101DA0003C60C4E90058C6F80090EDE794000020BC
:101DB000AC08002090000020A828002002E008C8FD
:101DC000121F08C1002AFAD170477047002001E0B5
:101DD00001C1121F002AFBD170472DE9F003012435
:101DE0004FF0000C002B08DD30F91C500CF1010CF9
:101DF0006D4304EB25246345F6DC04EB030C082655
:101E000003E04FEA4C0C761E02D0BCF1804FF8DBA9
:101E1000122703E04FEA4C0C7F1E02D0BCF1804F2A
:101E2000F8DB0024002ADCBFBDE8F0037047002582
:101E3000A4469C420EDAACEB040930F91C8030F960
:101E400019900CF1010C08FB09F848FA06F8454412
:101E50009C45F0DB45FA07FC21F814C0641C944251
:101E6000E5DBBDE8F00370472DE9F001B1F9007042
:101E7000002F68D00023002A61DD01EB430C002B0A
:101E8000BCF902C04FEA4C3CCCF100044FF0000C0E
:101E90000BDDA3EB0C0630F91C5031F916600CF188
:101EA000010C05FB16446345F3DC07F1010C04EB60
:101EB0006C0C07F1080424B29CFBF4FC0FFA8CF4C0
:101EC0004FF0000C20F81340BCEB630F1DDAA3EBBE
:101ED0000C0500EB450530F91C6035F9028C08FB58
:101EE00004F808F5805806EB683820F81C80664333
:101EF00035F8028C06F5805608EB66360CF1010CBD
:101F000025F8026CBCEB630FE1DB13F0010F09D085
:101F100030F91C5005FB04F606F5805605EB6635D6
:101F200020F81C5007FB04FC4CF34F3C0CFB04FC5A
:101F3000A7EB6C3C5B1C0FFA8CF793429DDB384699
:101F4000BDE8F00170470021002AC8BF002304DD6E
:101F500020F81130491C8A42FADCBDE8F00100206B
:101F6000704730B404464FF0000C002BDCBF30BC8F
:101F7000704731F91C50654305F58045ED13444326
:101F800022F81C5004F580440CF1010C44F3CF34CA
:101F90006345EEDC30BC70472DE9FF4F8DB04FF448
:101FA0008041DDF840C0ACF80010B2F900104903E0
:101FB00049420691B0F90010890349420091B2F9F3
:101FC0000210490349420391B0F9021089034C42BF
:101FD000B2F90410490349420891B0F90410890389
:101FE0004D42B2F90610490349420591B0F9061075
:101FF00089034E42B2F90810490349420A91B0F9E7
:102000000810890349420291B2F90A104903494272
:102010000791B0F90A10890349420191B2F90C10F5
:102020004903C1F1000AB0F90C1089034942049137
:10203000B2F90E10490349420991B0F90E10890313
:102040004F42B2F91010490349420C91B0F91010F7
:102050008903C1F10008B2F91210490349420B91FA
:10206000B0F912104FF0010C8903C1F100090E996B
:102070004FF4805E01EB4C01DDF800B031F8023C1A
:10208000069901F5805103EB613359420EEB83331E
:102090005B44DDF840B05B1309B22BF81C30B2F999
:1020A00000E0DDF80CB05B420EFB01BBCDF818B0D0
:1020B000B0F900B01BB20BFB03440094B2F902B0BC
:1020C000089C0BFB01440394B0F90240B2F904B040
:1020D00004FB0354059D0BFB01550895B0F9045012
:1020E000B2F906B005FB03650A9E0BFB0166059677
:1020F000B0F906B0029EB2F908E00BFB0366DDF80A
:102100001CB00EFB01BBCDF828B0B0F908E0DDF83B
:1021100004B00EFB03BBCDF808B0B2F90AB00BFB5C
:1021200001AACDF81CA0B0F90AB0DDF810A00BFB95
:1021300003AACDF804A0B2F90CB0DDF824A00BFB83
:1021400001AAB0F90CB00BFB03770497B2F90EB0FB
:102150000C9F0BFB01770997B0F90E70B2F910B024
:1021600007FB0387DDF82C800BFB0188CDF830805E
:10217000B0F910800CF1010C08FB0398B2F9129031
:10218000BCF10B0F09FB01F10B91B0F9121001FB2F
:1021900003F9FFF66CAF4FF00B0C06994FF4805E1D
:1021A00001F580514B135942DDF800B00EEB83333B
:1021B0005B44DDF840B05B1309B22BF81C30B2F978
:1021C00000E0DDF80CB05B420EFB01BBCDF818B0AF
:1021D000B0F900B01BB20BFB03440094B2F902B09B
:1021E000089C0BFB01440394B0F90240B2F904B01F
:1021F00004FB0354059D0BFB01550895B0F90450F1
:10220000B2F906B005FB03650A9E0BFB0166059655
:10221000B0F906B0029EB2F908E00BFB0366DDF8E8
:102220001CB00EFB01BBCDF828B0B0F908E0DDF81A
:1022300004B00EFB03BBCDF808B0B2F90AB00BFB3B
:1022400001AACDF81CA0B0F90AB0DDF810A00BFB74
:1022500003AACDF804A0B2F90CB0DDF824A00BFB62
:1022600001AAB0F90CB00BFB03770497B2F90EB0DA
:102270000C9F0BFB01770997B0F90E70B2F910B003
:1022800007FB0387DDF82C800BFB0188CDF830803D
:10229000B0F9108008FB0398B2F9129009FB01F124
:1022A0000B91B0F912100CF1010C01FB03F9BCF118
:1022B000280FFFF672AF11B0BDE8F08F70B50025A2
:1022C0000122AC4600290BDD50F82C30002BB8BFA2
:1022D0005B429342C8BF1A460CF1010C8C45F3DBFC
:1022E0000024B2F5804F04DB5210641CB2F5804F1D
:1022F000FADA0022002923DD50F822304FF0000CDA
:1023000023411BB203FB03C600EB8203D3F804C0D6
:102310004CFA04FC0FFA8CFC0CFB0C66D3F808C0DA
:10232000DB684CFA04FC23410FFA8CFC0CFB0C6CB0
:102330001BB203FB03C3121D05EBA3159142DBDCAB
:1023400095FBF1F004F0C2FFE11C884000F500505D
:1023500040F38F3070BD70B50A234FF0000C002998
:1023600036DD30F91C20002AB8BF52429A42C8BF5D
:1023700013B20CF1010C6145F3DCB3F5804F27DBA0
:1023800000231A4600291DDD30F912C000244FEA4F
:102390006C0C0CFB0C4500EB420C121DBCF902400E
:1023A000641004FB0455BCF90440BCF906C0641079
:1023B00004FB04544FEA6C0C0CFB0C4C03EBAC1309
:1023C0009142E1DC93FBF1F004F080FF000135E085
:1023D0004FF0000C6446B3F5005FB8BF0124B3F5BD
:1023E000805FB8BF0224B3F5006FB8BF032400229A
:1023F00000291CDD30F812300025A3401BB203FB7E
:10240000035600EB42035D88A5402DB205FB05662F
:102410009D88DB88A540A3402DB205FB05651BB256
:1024200003FB0353121D0CEBA31C9142E2DC9CFB4B
:10243000F1F004F04BFFC4F10301884000B270BD1D
:102440002DE9F04F3D4C90B00DF11009B4E8E001DA
:10245000DDF864C08DE8E001B4E8E00189E8E0015E
:10246000B4E8E0010DF12009042B89E8E001F0CC8B
:102470000DF1300888E8F000C8BF042303EB4303E4
:102480006C4604EB430608AC04EB43050023002A2A
:10249000CEBF4FF4004E10B0BDE8F08FB5F900701C
:1024A00030F91380DCF8004007FB084404F50057BE
:1024B000BEEBA73FD8BF47F6FF7706DDDFF8809079
:1024C000B9EBA73FACBF1F4FBF13B5F902A0DCF8B3
:1024D00004900AFB089AB6F80280C8F100080FFAC7
:1024E00088F9C4F30E0809FB08FB44F3CF3409FB59
:1024F00004F909EBEB390AEB4909CCF80090B5F97E
:10250000049030F913A009FB0AFAB6F80490C9F157
:1025100000090FFA89F909FB08F809FB04F404EB38
:10252000E8340AEB4404CCF8044021F813705B1C37
:102530009342B3DB10B0BDE8F08F0000FC910008BF
:102540000080FFFF0180FFFF2DE9F0410B3020F0FC
:102550000706104D19E02068B04215D3B0420AD9E1
:10256000871B201DD4F80480FEF77CF8A019C0E971
:102570000078286004E060682860201DFEF772F88B
:10258000201D2660BDE8F081251D2C68002CE2D1BD
:102590000020F7E7900000202DE9FF4F9DB007468F
:1025A0001F9899460024A7EB4005E84605EB440038
:1025B000811F4A463846FDF723FF48F82400641C73
:1025C000072CF3DBDFF80CE14FF0000ACAEBCA007E
:1025D0004FF0000C08EB800B0EEB40030025DCF104
:1025E000030148BF0021CCF10A04072CC8BF07240F
:1025F000A14213DA0CEB010008EB800033F9116003
:1026000050F80C0C491CC0F30E02724305EBE23289
:1026100040F3CF3006FB0025A142EBDB0BEB8C0037
:102620000CF1010CC561BCF1070FD7DB0AF1010AFF
:10263000BAF1030FCADB0024009A25462346C3EBF8
:10264000C301002008EB810C5CF82010914202DDF0
:102650000A461C460546401C0728F5DB5B1C042B7C
:10266000EDDB4FF0000CB9F1000F2DDDC4EBC40021
:102670000EEB40081F98461B0022002CC4BF00210F
:10268000ACEB06000FDD00EB010A08EB410307EBA2
:102690004A0A33F90E3C3AF90CAC491C0AFB0322F6
:1026A0000729F0DB06E0ACEB060007EB400030F951
:1026B000060CC20302F58040C1131E9820F81C10BE
:1026C0000CF1010CCC45D7DB1F9821B0401BC01C7E
:1026D000BDE8F08FD09100082DE9FF4F86B00027AC
:1026E000079A149902EBD2724FEA620CC1F104020C
:1026F00002F00302114401EB8C01091DCCF1000230
:1027000001EB8205C1F1040303F00303194401EB5B
:102710008C0101F10409059709EB820300922D1F3A
:102720004FF4005143F8041C1C1F2960002122466D
:102730002E4605F10408BCF1000F1EDDDDF81CA0DB
:1027400030F911B0AAEB010A00EB4A0A3AF902EC9F
:10275000F34452F804EBABEB0E0B43F804BB30F937
:1027600011B03AF902AC491CABEB0A0A56F804BBAB
:102770008C45DA4448F804ABE0DC002022462B46C6
:10278000BCF1000F0CDD1168401C891C891042F857
:10279000041B1968891C891043F8041B8445F2DC6A
:1027A00054F82C000CF10103001DC01044F82C005B
:1027B00055F82C00001DC01045F82C00C9F102008E
:1027C00000F00100484400EB4C000099801C00EB35
:1027D0004101891E0391C0F1020101F00101084489
:1027E00000EB4C000099801C00EB4100801E029021
:1027F0000020002B0CDD039934F8202021F8102054
:10280000029935F8202021F81020401C8342F2DC88
:10281000002507984FF48044049500287EDD049835
:1028200010F0010F14BFDDF808B0DDF80CB0214640
:10283000B4F5804FA8BF43F6FF7103DA11F5804F5E
:10284000D8BFA0494FF480463BF91C200BEB4C034A
:10285000009233F9023C01934B4303F5005302EB22
:10286000A33302220846BCF1020F13DB804601FBB2
:1028700008F0C6EB6030ACEB020946463BF9198024
:1028800000B208FB00F808F50058521C03EBA8330F
:102890009445EBDA4FF0010E54E004FB04F040F3F2
:1028A0008F304DF6C02141434FF48040A0EB2140D2
:1028B00001B2139803F2FF12484340F2FF3140F394
:1028C000CF308A423CBF401C4010201A01B20D4656
:1028D000B1F5804FA8BF43F6FF7103DA11F5804FC1
:1028E000D8BF78494FF48048DDE900264E4306F50D
:1028F000005602EBA63602220846BCF1020F15DB99
:10290000814601FB09F0C8EB6030C846ACEB020918
:1029100000B23BF9199009FB00F900E01CE009F551
:102920000059521C06EBA9369445E9DA06F0E0405E
:1029300003F0E041884213D193B133462C46BEF1F7
:10294000000F02D015F5804FA7DA04980799401CB4
:1029500004908842FFF663AF05980AB0BDE8F08F97
:1029600005984FF0000E401C05900998002844DBA4
:10297000601C4010691C00EB610000B20746D9469C
:10298000B0F5804FA8BF43F6FF7003DA10F5804F13
:10299000D8BF4C484FF48048DDE90026464306F591
:1029A000005602EBA63602220146BCF1020F13DBF1
:1029B0008A4600FB0AF1C8EB6131D046ACEB020A53
:1029C00009B239F91AA0521C0AFB01FA0AF5005A99
:1029D00006EBAA369445EBDA06F0E04003F0E0415E
:1029E000884204D1002B1CBF33463C4600D13D46F3
:1029F00009980EF1010E8645BADD38004FF000044B
:102A000002D50124784200B2C0F5804000B24010E7
:102A100040F2CE5100FB01F240F6C20101EB6231FF
:102A200041434A1344F25501114409B2484340F36B
:102A30004F30430300211846B3F5803F24BF180CE4
:102A40000821B0F5807F24BF000A091D102824BF8B
:102A50000009891C042841F1000148008A1F0C3834
:102A600000284FEA4200CEBF43FA00F0404203FA8A
:102A700000F000B241F26C0100FB01F34CF6AD61D5
:102A800001EBA33109B241438B1345F2B52119443F
:102A900009B24843801300F63260C2F1070100B268
:102AA0000029CEBF0841D11F884000B21CB146F2B8
:102AB0008841081A00B2049A08993C4621F812008D
:102AC00043E7000001C0FFFF30B446F288439B1A81
:102AD000B0F900C01BB29445B8BF028000EB410CB6
:102AE0003CF9024C9C42C8BF2CF8023C01234D1E0D
:102AF000012DDCBF30BC704730F9134000EB430CB4
:102B00003CF9021C11448C42B8BF20F8131030F974
:102B10001340BCF90210891A8C4205DD4FEA640C9F
:102B20000CEB610120F813105B1CAB42E4DB30BC02
:102B30007047F0B4DDE9044CA4030FFA8CFC04F5F3
:102B4000804494FBFCFC0FFA8CF4C4F5804C0FFA23
:102B50008CF64FF0000C002BDCBFF0BC704730F956
:102B60001C5031F91C70754305F500556743AD13D2
:102B700007F5005705EBA73522F81C500CF1010CA6
:102B80006345ECDCF0BC70472DE9F04F07460025AB
:102B900085B09B460C46284637F8101024F81010D4
:102BA000401C0A28F8DB00226E46B4F9008046F289
:102BB000884C4FF4A0300FE072B104EB420334F8BC
:102BC000121033F8023CC91A09B2092A04BF638AF9
:102BD000ACEB030308D000E0414604EB420334F8B9
:102BE00012905B88A3EB09031BB28B42B8BF194656
:102BF00001F5967109B290FBF1F126F81210521C02
:102C00000A2AD9DB0020C10634F8102001F1006146
:102C1000A2EB214124F81010401C0A28F3DB664A7D
:102C20006FF000484FF0000C0021084612F9019B9C
:102C300034F81030401CA3EB49131BB203FB031103
:102C40000A28F3DB8845C4BF884665460CF1010CB1
:102C5000BCF1400FE8DB584A002005EB850300EB90
:102C6000430C34F8101012F90CC0A1EB4C1124F8ED
:102C70001010401C0A28F2DB06222946584603F0B1
:102C8000E3FE002034F81010490024F81010401C16
:102C90000A28F7DB494A6FF000494FF0000800218D
:102CA000084612F901CB34F81030A3EB4C130FFA9D
:102CB00083FC36F910300CFB0CFCCCF30E0A03FB42
:102CC0000AFA01EBEA314CF3CF3C03FB0C11401C38
:102CD0000528E6DB8945C4BF8946454608F1010859
:102CE000B8F1400FDBDB3549002005EB850202EB34
:102CF000000C34F8103011F90CC0A3EB4C1324F87D
:102D00001030401C0528F2DB06222946584603F005
:102D10009BFE2B4A6FF000494FF000080021084647
:102D200004EB400312F901CB5B89A3EB4C130FFAC0
:102D300083FC06EB40030CFB0CFCB3F90A30CCF32C
:102D40000E0A03FB0AFA01EBEA314CF3CF3C03FB1A
:102D50000C11401C0528E3DB8945C4BF8946454664
:102D600008F10108B8F1400FD8DBDFF854C00020AB
:102D700005EB850204EB400116184B891CF906602F
:102D8000401CA3EB46134B810528F3DB06222946A2
:102D9000584603F059FE002034F9102037F810107F
:102DA000521CA1EB620124F81010401C0A28F3DB2E
:102DB00005B0BDE8F08F00003C930008BC9500080A
:102DC000FC9600082DE9FF4FC3F1040101F0030157
:102DD0005410194401EB840101F10401C4F1000312
:102DE00001EB830CC1F1040505F00305294404F14E
:102DF000010502F1030705FB07F501EB8501C5F1AC
:102E00000009C1F1040601EB890806F0030631440C
:102E100001EB840101F1040101EB8303C1F104061C
:102E200006F00306314401EB850682B006EB890902
:102E30004FF00001A3F10403ACF1040C0CD401FB2E
:102E400007F508EB850A4CF821A009EB850543F846
:102E50002150491CA142F2DDC6F1020101F001013D
:102E6000314401EB4201554201EB45050021002AA6
:102E700046DD4FF4805843F2442E4FF4AA79C8F14E
:102E8000000A4FF4005B30F91160764516DA76439C
:102E900006F5805646F34F36774207EB870708EB77
:102EA000470709EB6737774307F580570AEB673722
:102EB0007E4306F580560BEB66361AE046F28847ED
:102EC000BE1B36B2764306F5805646F34F36774240
:102ED00007EB870708EB470709EB6737774307F5E9
:102EE00080570AEB67377E4306F580560BEB663654
:102EF000764236B2B60025F81160491C9142C2DB19
:102F000000204FF48011002CA4BF4FF000090827C7
:102F10001BDB5CF82060C6F804905CF82060B160B0
:102F20005CF8208007EBC00648F8061053F82080B4
:102F3000C8F8049053F82080C8F8081053F820808F
:102F4000401C844248F80610E3DADCF80010B5F9BA
:102F50000000896841F38F364643C1F30D014843B1
:102F6000DCF8041006EBA0304042C8601968B5F9DF
:102F70000200896841F38F364643C1F30D0148438F
:102F8000596806EBA0304042C860002001900090D4
:102F90000120012C7DDD012101EB400BBBF1010F74
:102FA000C8BF05EB800A42DD5CF82060042707EB10
:102FB000810735F9208056F8079049F38F3E0EFBC4
:102FC00008FEC9F30D0909FB08F84FF0080909EBE1
:102FD00081090EEBA83856F809E056F82160AEEBEF
:102FE000080846440CEB8008D8F8048048F80960CB
:102FF00053F8206056F80780BAF9027048F38F3E04
:103000000EFB07FEC8F30D0808FB07F756F809800A
:103010000EEBA73756F82160A8EB07073E4403EBF9
:103020008007491C7F688B4547F80960BCDC5CF869
:103030002060042707EB810735F9209056F80780B8
:1030400056F8216048F38F3AC8F30D080AFB09FAD5
:1030500008FB09F80AEBA838A6EB08090CEB800678
:10306000D6F804A0082606EB81084AF8089053F821
:10307000206005EB8009F759B9F9029047F38F3AC0
:10308000C7F30D070AFB09FA07FB09F70AEBA73795
:1030900000E00BE056F8211003EB8006C91B7668B0
:1030A000401C844246F808103FF775AF0121012A01
:1030B000A7BF0827DFF8588006B0BDE8F08F5CF89E
:1030C000240007EB8106855953F82400865900989F
:1030D00005EB060981440198CDE90056A9EB0000F3
:1030E0008030001210F5004FD8BF404604DDB0F527
:1030F000004FA8BF47F6FF70039D05EB4105491C33
:1031000025F8020C9142DADD06B0BDE8F08F000030
:103110000180FFFF70B5044600201546002908DD38
:10312000C20602F10062121424F81020401C8142F1
:10313000F6DC0621284603F008FD01461E4A002061
:1031400001EB810100EB410C34F8103012F90CC096
:1031500003EB4C1324F81030401C0A28F2DB062144
:10316000284603F0F2FC0146144A002001EB8101DD
:1031700001EB000C34F8103012F90CC003EB0C1307
:1031800024F81030401C0528F2DB0621284603F005
:10319000DCFC0146DFF828C0002001EB810204EBD3
:1031A000400115184B891CF90550401C03EB051311
:1031B0004B810528F3DB70BD3C930008BC950008EB
:1031C000FC960008FDF71AFF4FF48030FDF760FF12
:1031D000FDF7A8FF012824D11020FDF70BFC0220E9
:1031E000FDF730FC0020FDF749FF0020FDF776FFDA
:1031F0004FF48060FDF768FF4FF4E0114FF480302A
:10320000FDF77CFF0120FDF773FF3920FDF716FF66
:103210000028FAD00220FDF77BFFFDF727FF0828E2
:10322000FBD101210320FDF7B9FE012140F6152055
:10323000FDF7CCFEFDF70CFDFE4803F0F0FBFE4869
:1032400003F0FAFCFD4D0C2105F12802686303F040
:10325000F0FC05F120020421686B03F0EAFC05F1A3
:1032600024021021686B03F0E4FCF34803F0CFFC68
:1032700005F12C020021A86303F0C6FCFDF72AFD2E
:103280004520FDF715FDFDF707FD0022ECA11046D6
:10329000FDF70AFE0022EEA10120FDF705FE002247
:1032A000EFA10220FDF700FE0022F1A10320FDF7AF
:1032B000FBFD0022F2A10420FDF7F6FD0022E0A1B3
:1032C0000520FDF7F1FDFDF74FFE0024EC63DFF86C
:1032D000C483DFF8BCB3A8F52079EF4802E0E96BBE
:1032E000491CE963E96B8142F9D3FDF75DFCD34DDD
:1032F000A879FEF7FFFADFF8A4A3E94F012605231A
:1033000001220F215046FDF7D9FA01215046FDF761
:1033100022FB02215046FDF79BFA0028F9D05046C7
:10332000FDF793FAA0F2A331A8813B2938BF012011
:1033300019D3A0F1A1013B2938BF022013D3A0F279
:10334000A9713B2938BF03200DD3A0F2B9103B2847
:1033500038BF042007D340215846FDF70FFC012851
:103360000CBF052000206871012811D1A879401EEA
:1033700010F0FF00A87108BFAE71A879FEF7BAFA85
:10338000EC6302E0E86B401CE863E86BB842F9D3F9
:103390006879022812D1A879401CC0B2A87104280B
:1033A00084BF0420A871C0B2FEF7A4FAEC6302E067
:1033B000E86B401CE863E86BB842F9D368790528EC
:1033C0009DD1A879012808D002287BD0032800F0DD
:1033D0001781042800F02582FEE7FDF75DFC00223E
:1033E000B0A11046FDF760FD0022B2A10120FDF75B
:1033F0005BFD002292A10220FDF756FD0022B1A143
:103400000420FDF751FD0022B2A10520FDF74CFD7F
:10341000FDF7AAFDAE70FEF7B7FAB24EB24F00202C
:103420002989725C3A54491C401C29811428F7DB15
:10343000AD491422A1F1380003F04DFB954AA86B69
:1034400002F5207103F0DDFB00202989725C3A54FB
:10345000491C401C29811428F7DBA3491422A1F13F
:10346000380003F038FB08F5A0727249A86B03F02E
:10347000C8FB6889401C6881FEF770FB6889B0F55D
:10348000967F3FD26878012808BF002017D129898C
:10349000725C3A54491C401C29811428F7DB92497C
:1034A0001422A1F1380003F016FB7A4AA86B02F54A
:1034B000207103F0A6FB6C706889401C68816878F5
:1034C000022800E025E008BF002017D12989725C9E
:1034D0003A54491C401C29811428F7DB82491422E4
:1034E000A1F1380003F0F7FA08F5A0725149A86B72
:1034F00003F087FB6C706889401C68816889B0F5AF
:10350000967FBFD32C816C81C5E90498FEF750FBF0
:10351000EBE6FDF7C1FB002274A11046FDF7C4FCE9
:10352000002247A10120FDF7BFFC002265A1022077
:10353000FDF7BAFC002263A10420FDF7B5FC0022D0
:1035400064A10520FDF7B0FCFDF70EFDFEF71CFAA7
:10355000FEF704FB0220A87001035846FDF70EFB9E
:10356000E8BB2878012803D0287802281DD03AE04B
:10357000304803F0E2FA2F4A686BA2F5A06103F02D
:1035800055FB5E491422A1F1240003F00CFB5B49BA
:103590001422A1F1240003F09EFA3E4AA86B02F522
:1035A000207103F02EFB2C701DE0224803F0C5FAB9
:1035B000204A09F5A071686B03F038FB4F491422CB
:1035C000A1F1240003F0EFFA4C491422A1F12400E8
:1035D00003F081FA08F5A0721649A86B00E009E033
:1035E00003F00FFB2C704FF400515846FDF7C6FA5C
:1035F0000028B6D02C70C5E90498FEF7D9FA74E615
:10360000FDF74AFB00223EA11046FDF74DFC0022CB
:103610000BA10120FDF748FC00222AA10220FDF7A2
:1036200043FC002227A10420FDF73EFC002225A137
:1036300005206DE090070020D090000800000020D9
:103640002A2A2A2A2A2A2A2A2A2A2A2A2A2A00002E
:10365000202057656C636F6D6520746F202000001B
:1036600020202053544D3332463130782020000042
:1036700020766F636F6465722064656D6F20000053
:10368000627920537065657820636F64656300001C
:103690000010014010050020FFFF7F0000240140C2
:1036A000FFFF100053746F72656420656E636F6472
:1036B0006564000020206D616C6520766F6963652C
:1036C000202000002020202020202020202020203A
:1036D00020200000657869742020202020202020F0
:1036E0002020000016750008C80700205265616C94
:1036F0002074696D6520706C61790000B40700204A
:103700005265636F726420766F69636520200000E4
:10371000FDF7CAFBFDF728FCFEF736F9FEF79CFA29
:10372000EE70EC61FDF7B8FA00227BA11046FDF7C0
:10373000BBFB0022AFF2F8010120FDF7B5FB002230
:10374000AFF280010220FDF7AFFB0022AFF28C0147
:103750000420FDF7A9FB0022AFF288010520FDF748
:10376000A3FBFDF701FCFEF789FADFF8BCA16F4F60
:103770002E4643E0B069504504BFF4703470307891
:10378000012803D03078022838D11BE0684803F0C4
:10379000D4F9674A706BA2F5A06103F047FA634958
:1037A0001422A1F1240003F0FEF900257819018804
:1037B000B069FDF72BF9B069AD1C801CB061142D08
:1037C000F4DB1AE05A4803F0B8F9594A09F5A07138
:1037D000706B03F02BFA55491422A1F1240003F079
:1037E000E2F9002578190188B069FDF70FF9B06991
:1037F000AD1C801CB061142DF4DB3470F07830B156
:103800004FF400515846FDF7B9F90028B2D0C6E987
:103810000498F47034704748B0613063FEF756FA8C
:1038200063E52E71FEF7B0F8FDF736FA002242A1EB
:103830001046FDF739FB0022AFF2FC110120FDF725
:1038400033FB0022AFF284110220FDF72DFB002292
:10385000AFF290110420FDF727FB0022AFF28C118C
:103860000520FDF721FBFDF77FFBFEF7C7F96E7022
:10387000354E3BE06878012808BF002005D0687805
:10388000022808BF002031D118E0296B11F8012B64
:103890003254401C29631428F7DB2B491422A1F170
:1038A000380003F018F9294AA86B02F5207103F0DB
:1038B000A8F96C706889401C688117E0296B11F8C1
:1038C000012B3254401C29631428F7DB1E491422B3
:1038D000A1F1380003F0FFF808F5A0721449A86BB5
:1038E00003F08FF96C706889401C68816889E96908
:1038F000884206D04FF400515846FDF73FF90028A2
:10390000B8D02C706C702C716C810A48C5F810907E
:103910002863C5E90580E8E45265636F7264696EE7
:10392000672E2E2E2020000060B20108B407002070
:103930009007002000C80008506C6179696E672EFE
:103940002E2E202020200000C80700201005002077
:103950002DE9F04F83B08846054600211098DDE937
:103960000C490191C0F1020101F00101084400EB92
:103970008400614200EB810750234A4639462846BD
:10398000FEF70AFE0E98814508DD4FEA490207EB73
:10399000440150232846FEF7FFFD07E007EB4401F2
:1039A0005023C9F100022846FEF7F6FD0020002C46
:1039B000C4BF43F6FF714A0024DD35F910300B44D3
:1039C000934202D90120019004E0401CA042F4DBA4
:1039D0000198B8B10020002C07DD35F9101049100E
:1039E00025F81010401C8442F7DC0020B0EB440F97
:1039F00008DA37F91010491027F81010401CB0EB06
:103A0000440FF6DB394622460846FCF7F9FC00F580
:103A10007A7003F05BFC834607EB440022460146C4
:103A20000290FCF7EDFC00F57A7003F04FFC824643
:103A3000294622460846FCF7E3FC401C03F046FCFE
:103A40000646224629463846FCF7DAFC0090002854
:103A5000BCBF00200090224629460298FCF7D0FC0B
:103A60000028B8BF00200121B6EB8B1FC4BF06F1B0
:103A7000200201EBA21BB6EB8A1FC4BF06F1200295
:103A800001EBA21A0BFB06F200998A42B8BF4FF471
:103A9000804109DB01EB660191FBF6F1890301EB43
:103AA0006B0191FBFBF109B20AFB06F28242B8BF3F
:103AB0004FF4804309DB00EB660090FBF6F08003D7
:103AC00000EB6A0090FBFAF003B2300200EB6B02ED
:103AD00000EB6A0090FBFAF092FBFBF20FFA80FC1D
:103AE0000F9816B20028DCBF0020024613DD43F217
:103AF0003332504340F6F60202EBE03000B2A0F65B
:103B0000F60212B246F6146A02FB0AF24FF4804A39
:103B10000AEBA23212B202FB01FA4AF3CF3A0AFBD5
:103B200001F147F6FF7A5A4342F3CF325A43AAEBE8
:103B3000613109B2AAEB623212B28142B8BF0146CA
:103B40008242B8BF0246830303EB610090FBF1F0B1
:103B500003EB620191FBF2F100B20E9A00FB06F05A
:103B600009B2914540F38F300CDD4BF234325043B3
:103B7000021401FB0CF040F38F3042F266614843BF
:103B8000C1130BE049F69A125043021401FB0CF0EA
:103B900040F38F3049F69A11484301140020002C5D
:103BA00012DD00EB040C37F9103037F91CC0534319
:103BB00001FB0C3335F810C080330CEB232328F8BD
:103BC0001030401C8442ECDC21464046FEF7C3FB2B
:103BD000064621462846FEF7BEFB0128B8BF012055
:103BE000012EB8BF0126B042C8BF3046800300EBAB
:103BF000660090FBF6F001B20020002C08DD38F9D9
:103C000010204A43921328F81020401C8442F6DC0E
:103C10000198002804BF03B0BDE8F08F0020002CFD
:103C200007DD35F81010490025F81010401C8442BB
:103C3000F7DC0020002CCEBF0C4A03B0BDE8F08FAB
:103C400038F91010B1F5804FA8BF43F6FF7103DAC1
:103C500011F5804FD8BF1146490028F81010401CBC
:103C6000A042EDDB03B0BDE8F08F000001C0FFFF14
:103C70002DE9F74FA0B0002018901790CDE90B0266
:103C8000209C834621982825D4F82C80F74F4FF0AC
:103C9000180947F6FF76002842D0206F002818BF89
:103CA000DFF8CCA343D0219802F03AFF0528C0F2F8
:103CB000D7810121219802F048FF002800F0B78148
:103CC0000321219802F041FF5AF820000028C0F299
:103CD000C281011F219802F087FE219802F020FF87
:103CE0000528C0F2BD810121219802F02EFF002895
:103CF00000F09D810321219802F027FF5AF820004F
:103D00000028C0F2A881011F219802F06DFE012158
:103D1000219802F01AFF002840F09D8100F087B939
:103D2000D4F8E40100281CBF0020A0677ED0216ADF
:103D3000206900EB410009EB4002E168206B00EBD9
:103D40004101FCF78FFCD4E91D0150F82100002847
:103D500000F0A981C8F1020101F0010101EB0802A4
:103D6000A16902EB41074A4207EB42021092436904
:103D7000219A10989847A06890B30021D4F8188031
:103D80000846B8F1000FC8BFD4F838900DDD109A7E
:103D900039F9103032F910C0B3EB0C0248BFACEB6C
:103DA00003021144401C8045F1DCC81344F6CD41A8
:103DB00021FA00F30020B8F1000F11DD216C51F859
:103DC000202042F3CF3CC2F30E020CFB03FC5A430B
:103DD0000CEBE23241F82020A169401C8142EDDC6D
:103DE0006068002804BFA06800280DD0A1690020E9
:103DF000002909DD1099A26B31F8101022F810107B
:103E0000A169401C8142F5DCD4E91D1051F8200065
:103E10000068B0F1FF3F06D00721219802F095FE1F
:103E2000E16908441890D4E91D1000E048E051F819
:103E30002000406860B10421219802F086FE8001D4
:103E400001B240F68900484300F58040C013179046
:103E50000521219802F079FE864946F6F66251F86E
:103E6000200040F3CF31C0F30E005143504301EB2B
:103E7000D0300D90C7F1020000F00100A169384474
:103E800000EB4100494200EB410AC0F1040101F09E
:103E900003010844216900EB81004A42C0F1040398
:103EA00000EB820703F00303184400EB810808EBE2
:103EB00082001690A06F012800F0328100F03AB91C
:103EC000A06815460A28BABF6B4931F910B04FF007
:103ED000000BB4F96210B4F96400B4F966208142B1
:103EE00004DA904209DB914204DB05E0824204DB04
:103EF0008A4201DA104600E00846B4F960108142B7
:103F0000C8BFA4F86000B4F960003628C8BF3620E6
:103F1000400200B20BFB00F040F3CF3AE168606B67
:103F2000FEF719FA0AFB0AF1A6EBE13109B201FB2F
:103F30000BF141F3CF31484340F3CF36216A20697A
:103F400000EB410009EB4002E168206B00EB41010E
:103F5000FCF788FB2089494A401C01B2E06E00FB57
:103F60000270E06600144843A0EBE00000F500504A
:103F7000E16D40F38F3001EBA030216A8142B8BF80
:103F80000846E1698142C8BF08460021E268002A6C
:103F90001ADD3A4BE26EA1EB000C02FB0372E26603
:103FA00012147243A2EBE20202F500529313626B09
:103FB00032F91CC00CFB0AFC03EBEC3322F8113085
:103FC000E268491C8A42E4DCE16B47F671500A461C
:103FD000A369FDF7C6FF206CA169CDE90010CDF8FB
:103FE00008802169606B2A46A0EB4100E368E16B21
:103FF000FCF7A1F904F1440000902946012308468A
:10400000E268FEF71DFA00216160A068401CA06014
:104010000AF580704212A06E04EB4003401CA066BB
:10402000A3F86220A06E0228C8BFA16676E021989E
:1040300002F076FD042813DB0421219802F085FDAF
:104040000F280DD00E281BD00D2823D00828D8BF4C
:10405000A0677FF76CAE23B06FF00100BDE8F08F72
:104060004FF0FF3023B0BDE8F08F00005FF36E3CEF
:10407000B09100080C9100089C9100080D66190091
:10408000DDE9202004F1800102F0D8FD00283FF492
:104090000AAEE7E7D4E97132DDE92010984700283D
:1040A0003FF401AEDEE7C8F1020000F00100A369B1
:1040B000404400EB4305584205EB4006324647F2C8
:1040C0000A70E16BFDF74DFFE168606BFEF743F9A5
:1040D000E2680021002A12DDFE4BE26E02FB037251
:1040E000E26612144243A2EBE202636B02F5005255
:1040F000921323F81120E268491C8A42ECDC01206B
:104100006060206CA169CDE900100295E368606BE6
:1041100031460C9AFCF70FF90020A0600020A1E7BF
:104120000421219802F011FD0F2814BF0020012066
:10413000C4F8E401A06F0128C4BF0020C4F8E40162
:10414000002012906069002840F374820D984FF4AB
:104150000051C0F30D001B900D9840F38F301A9062
:1041600004F16C000E9017980D3800EB400001EB45
:10417000403040F38F301E90189800B240001990E4
:10418000000C1D900D9800F5005040F38F301C90EE
:10419000002015902169129801FB00F9606B00EB7B
:1041A0004906206D00281CBF00EB4900159049000E
:1041B0003046FCF77EFA0020B4F96010D4F81CE019
:1041C000236AA268CDE90910CDE9072913A811A92E
:1041D000219ACDE90310CDE90528D4E91D02216912
:1041E00050F82200DDF85CC0026ACDF800C0CDE9CD
:1041F0000121D0F81CC0724630461699E0474FF0B6
:104200007A6251422369169802F03AFBBDF94E10CA
:104210000029B8BF4942BDF94C000028DCBF40105E
:1042200040420144BDF950000028DCBF401040422C
:10423000084400B20B995845014409B20B9119DDAD
:104240001199C1EB4502002A48BFA1EB4502032AA0
:1042500010DB05EB4502521A44BFA5EB85020A4468
:10426000042A07DBC1EB8502002A48BFA1EB8502C7
:10427000052A3FDA44F6CD410BFB01F1B0EBE13FFB
:1042800018DD11994B4215EB430248BFC5EB4102C3
:10429000032A2FDBA1EB8102521944BF01EB41023B
:1042A000521B042A26DB15EB830248BFC5EB8102B3
:1042B000052A1FDB45F2C3514143BBEBE13F1DDA49
:1042C0001199C1EB4502002A48BFA1EB4502032A20
:1042D00010DB05EB4502521A44BFA5EB85020A44E8
:1042E000042A07DBC1EB8502002A48BFA1EB850247
:1042F000052A03DA0D468345B8BF8346206981004D
:104300003846FCF7D6F9D4E91D0150F82100806841
:1043100003287CD0012818BFDDF8349078D00E989F
:10432000CDE90080D4E91D01226950F82100219BCC
:10433000D0E90AC13846E04739464A46084623696B
:1043400002F036FBD4E91D0150F82100C068E8B343
:10435000C8F1040000F0030000EB0801CDF808806C
:10436000206901EB8001424201EB82080F9181003C
:104370004046FCF79EF9DDE90E10CDE90001D4E9D5
:104380001D01226950F82100219BD0E90AC1404655
:10439000E04749F3CF3043F62F214843C9F30E01DC
:1043A00043F62F22514300EBD132414608462369A0
:1043B00002F0FEFA2169002000290CDD57F82010D8
:1043C00058F82020114447F8201000E005E021694A
:1043D000401C8142F2DCDDF80880216900200029C0
:1043E00022DD4FF40043C3F1000C0CF1010E9A10D2
:1043F000169957F8209051F8201002EB41014944DA
:10440000B3EBA13FD8BF47F6FF7107DD01E021E024
:104410002FE0BCEBA13FACBF7146891326F810100A
:104420002169401C8142E3DC159800281CBF002054
:1044300000290BDD57F8201001F500518A1315995A
:1044400021F810202169401C8142F3DCA06F012873
:104450001ED0E8E00321219802F077FB1E4931F9D4
:1044600010001B9900FB01F21A99484300EBA23996
:1044700055E70121219802F068FB184931F9100035
:104480001B9900FB01F21A99484300EBA23946E759
:10449000DDF87890B9F1000FB8BF4FF0000904DBE8
:1044A000B9F1400FC8BF4FF0400949003046FCF752
:1044B00000F92169D4F8E00188425ADA1C9809FB16
:1044C00000F0203040F38F1ED4F8E0C1BCF1000FA3
:1044D00046DB05E00D6619008C9100080691000886
:1044E000199B00211846B3F5803F24BF08211D9871
:1044F000B0F5807F24BF000A091D102824BF0009E1
:10450000891C042841F1000148008A1F0C3800284A
:104510004FEA4200CEBF43FA00F0404203FA00F0F7
:1045200000B241F26C0100FB01F34CF6AD6101EB0E
:10453000A33109B241438B1345F2B521194409B2A5
:104540004843801300F63260C2F1070100B200292F
:10455000CEBF0841D11F884000FB0EF026F81C009A
:10456000D4F8E01118980844C4F8E00121698842A1
:10457000AADB401AC4F8E0010020002953DD47F609
:10458000FF726FF4D97101FB092109B200914D212D
:1045900009FB01F10AB257F820C0009B0CF5005C42
:1045A0004CF38F3C03FB0CF3D4F8D8C1DB130CF5B0
:1045B000005C4CF38F3C02FB0CFC36F91010A3EBB3
:1045C000EC334BF2343CB4F9D49101FB0CFC42F2D5
:1045D000666E4FEA2C4C09FB0EF90CEBE93C634488
:1045E00026F81030A4F8D41157F82010C4F8D811C8
:1045F000B4F9DC1146F26663594336F9103040F6DF
:10460000CD4C03FB0CF301EB430101F58041C913D1
:10461000A4F8DC1136F81030591A26F81010216968
:10462000401C8142B7DC1298401C129061698142A3
:104630003FF7AEADC8F1020000F00100A3694044AD
:1046400000EB4306584206EB4007E06F50B1D4E957
:104650001D0150F82100B0F93000002802DDA168EA
:1046600000297DD0616B2069A1EB4001E068420028
:104670000C98FBF7F7FFA06840B3E168606BFDF7AB
:104680006AFE401C40F34E020D9900B2114491FBAA
:10469000F0F0B0F5004FA8BF47F6FF7002B2E16836
:1046A0000020002912DD616B31F9103053439B1358
:1046B00021F810302369616BC31A31F813300C995B
:1046C00021F81030E168401C8142ECDC60694FF059
:1046D000000800284DDD20690C9900FB08F001EB73
:1046E000400960693A46CDE90080A369A06B109942
:1046F000FEF71FFA10223846A169FEF7E5F93346A6
:1047000051463846A269FEF75DFBA26900204FF4CE
:104710000051002A0BDD0AEB40033AF910C0B3F94F
:104720000230801CA3EB0C0319448242F3DCE06CE2
:104730004A4640F82810206CA169CDE90010029685
:1047400010462369E16BFBF7F6FDA1690020002903
:104750000ADDE26B3AF8101022F81010401C00E05D
:1047600067E0A1698142F4DC606908F10108404515
:10477000B1DCD4F8EC0170B104F144000090D4F83D
:10478000E801002818BF022040F001030C99E268FC
:104790000846FDF755FE0D98012300F5005003EB88
:1047A000A03000B2A4F85400B4F9562047F6B8611E
:1047B0005143B0EBE13FB4BFC91301460AB2A4F8BC
:1047C0005620B4F95810DFF8BCC001FB0CF103EB24
:1047D000214109B28142B8BF0846A4F85800401CE4
:1047E0008242B8BFA4F856000020A169002909DD63
:1047F0001099A26B31F8101022F81010A169401C1A
:104800008142F5DC00226260E565A2600B98801CA5
:104810008010A4F86000A16E04EB4103491CA1665E
:10482000A3F86200A06E0228C8BFA2660D9820857A
:1048300074E4CDE903064FF02808CDE9015820695A
:1048400041000091616BE26BA1EB40000C99FFF716
:104850007FF8D4E91D0150F82100B0F93000CDE90E
:104860000306CDE90158206941000091616BA369FD
:1048700001EB400C0C99E26B01EB80016046FFF705
:1048800067F8F8E69002010070B5154604461A294B
:1048900074D014DC09292CD007DC6ED2DFE801F0DB
:1048A0002B2ECA30CACA26292600A1F113000728D8
:1048B00063D2DFE800F0273FBF57BF3A3D006429CD
:1048C0007AD00ADCA1F124000A2856D2DFE800F0F1
:1048D0007578B27AB2B2B2B27C80A1F165000628D6
:1048E0004BD2DFE800F086A7999D9FA31068A067D0
:1048F0009EE0A06F92E01068E06799E0E06F8DE0C5
:10490000E0688BE0D4E91D0150F8210030B1406B24
:10491000616A4843E16890FBF1F07FE0606AE1681A
:1049200000EB800090FBF1F078E0106860627FE0BF
:10493000606A73E0D5E9000100EB800004EB8000C1
:10494000C0F884102868A96800EB800004EB8000A0
:10495000C0F88810106800EB800104EB8101C1F8F9
:10496000800065E06868C4F8C401A868C4F8C8019C
:104970001068C4F8C0015BE000E05BE00020A269C1
:104980000146002A06DD226C42F82010A269401C74
:104990008242F8DC236AE26800201A44521C002A92
:1049A00046DD226B22F81010236AE268401C1A448C
:1049B000521C8242F5DC3BE00DE01068206737E0D6
:1049C000206F2BE0206929E01068C4F8EC012FE08B
:1049D000D4F8EC0122E061690020002928DDE16CB7
:1049E00051F8201045F820106169401C8142F6DC26
:1049F0001EE06069002600281ADD2169606B01FB5A
:104A000006F200EB4200FDF7A6FC25F816006069EF
:104A1000761CB042F1DC0BE0D4F8E401106007E052
:104A2000226505E01068C4F8E80101E0E06A106062
:104A3000002070BD4FF0FF3070BD10B50446C06A55
:104A4000FDF766F9206BFDF763F9E06BFDF760F9A0
:104A5000A06BFDF75DF9206CFDF75AF9E06CFDF7EE
:104A600057F92046BDE81040FDF752B970B506462B
:104A700005684FF4F8700121FBF726FE040008BF1B
:104A800070BD4FF47A700121FBF71EFE2660E062D4
:104A90000126266766602868E060D5E9001291FB70
:104AA000F2F1616169682161AA68A261EA68E26164
:104AB0002A6905F11C03636722620844EB6D00EB71
:104AC0004200C4E91E3640000C2501211830FBF7D6
:104AD000FBFD2063216A236900EB810205EB4303A0
:104AE0001A446263E26811444900FBF7E2FDA069E1
:104AF00001214000FBF7E8FDE063A06901214000CF
:104B0000FBF7E2FDA063A06901218000FBF7DCFD5B
:104B10002064606901218000FBF7D6FDE06400217C
:104B20002820A160E065A4F86610A4F86410A4F839
:104B300062104FF47A70C4E91A10C00060622185D7
:104B40000D48C4E97101084600EB800204EB8202C3
:104B5000401CC2F884101028F6DBA4F8DC11C4F85D
:104B6000D811A4F8D411C4F8E011C4F8E411C4E9D0
:104B70007A16204670BD0000136C00082DE9F74F2F
:104B8000CAB004463891056C806CA168226A04267C
:104B900000EB410106EB4202FBF764FDA168206DCA
:104BA000226A00EB410106EB4202FBF75BFDD4F801
:104BB000AC0060B104F17C000090D4F8A800031CA4
:104BC00018BF0223A26838990846FDF739FCC5F1E1
:104BD0000200616900F00100284400EB41004A42F4
:104BE00000EB420CC0F1020202F001020244A06993
:104BF00002EB4002961C404206EB4000A268851E74
:104C00000020891A00290FDD616CA26D31F91010A6
:104C100032F91020514389132CF81010A2686169F1
:104C2000401C891A8142EFDC6169814210DDA26873
:104C3000411A0A44389931F91210A26D32F9102044
:104C4000514389132CF810106169401C8142EEDC3D
:104C5000A0690B46421C29466046FDF7BEF8B5F92F
:104C60000000B4F93C10414300EBE1302880A16919
:104C70000020491C00290DDDE16D35F9102031F9C6
:104C800010105143891325F81010A169401C491CCC
:104C90008142F1DC29463BA8A269FDF7E5F841F61F
:104CA0009910CDE900060A231AAA3BA8A169FDF7CD
:104CB00013FDA16981421CBF00200029C8BF1AA9A9
:104CC00008DD226E32F8102021F81020A269401C65
:104CD0008242F6DCA1686069471A606878B1A16910
:104CE00000200029C4BF24AA1AA912DD31F810300F
:104CF00022F81030A369401C8342F7DC09E02069E8
:104D000024AA4100CDE900011AA9A369206EFDF78C
:104D100010FF102224A8A169FDF7D6FE334629A969
:104D200024A8A269FEF74EF8D4E9270150F8210023
:104D300068B1D4F88C10022902DD8168032906DBF2
:104D40004168002904BF0068B0F1FF3F70D0B4F99A
:104D5000380015AA29A9A369FDF703F9B4F93A00A7
:104D600010AA29A9A369FDF7FCF87A00616C606DAF
:104D7000FBF778FCA168606DC91B4A0000EB470097
:104D80003899FBF76FFCA268216FA0690092039627
:104D9000CDE90101606D10AA034615A9FBF738FAA9
:104DA0000620CDE902060DF128090DF11008CDE924
:104DB0000089D4E90712A368606D00F023FEBDF9F5
:104DC0002800049D46F6CD42012100FB02F34390EA
:104DD00039F91100B0EBE33F25DD58F82100C5EBB0
:104DE0004002002A48BFA5EB4002022A1ADD00EB70
:104DF0004002521B44BFA0EB80022A44032A11DD6B
:104E0000C5EB8002002A48BFA5EB8002042A09DD19
:104E100000EB8002521B03D5424202EB82022A447D
:104E2000052A00DC0546491C0629D1DB02E0FFE724
:104E3000002543957A00616CE06CFBF713FCA168D8
:104E4000E06CC91B4A0000EB47003899FBF70AFCED
:104E5000606FA169CDE900100296E06C29A90246B5
:104E6000A368FBF751FCA168E06CFDF774FA0746F4
:104E7000D4F8A000012818BF002DD8BFBD0310DD55
:104E800043984043400000B2FE4948434FF08051F0
:104E900001EB400002F0E0F9FB494843001400FB3D
:104EA00007F5D4F8980050B1012200214C9801F088
:104EB000CBFD0422D4F8A0104C9801F0C5FD606829
:104EC00070B1A16900200029C8BF1AA908DD236EAE
:104ED00031F8102023F81020A269401C8242F6DC31
:104EE000D4E92701A26950F821002EA94C9BD0F8E3
:104EF00010C01AA8E0472022E449284601F0EAFC45
:104F00000146E24846F6F66350F8210040F3CF32FE
:104F1000C0F30E005A43584302EBD03905224C9897
:104F200001F092FD606870B1A16900200029C8BF3E
:104F30002EA908DD636E31F8102023F81020A26935
:104F4000401C8242F6DCC6F1020000F0010081192B
:104F5000E068002501EB4002414202EB410340932F
:104F6000C2F1040303F003031A4402EB800202EBD4
:104F700081033993C2F1040303F003031A4402EBE3
:104F80008002C2F1020302EB810A03F001031A441A
:104F900002EB400202EB41033A93C2F1020303F039
:104FA00001031A4402EB400202EB41034193C2F1B8
:104FB000020303F001031A4402EB400000EB410836
:104FC000C0F1040101F003010144A06901EB800775
:104FD000404207EB80062069002840F3478204F135
:104FE0002400449009F5005040F3CE318013CDE900
:104FF0004701C9F30D00469049F38F304590D4F82E
:105000000CB024AA0BFB05F00490E16C01EB40000E
:105010004290616D049801EB400920691AA9CDE91D
:105020000050A369206EFDF784FD206933AACDE905
:1050300000502EA9A369606EFDF77BFD102224A805
:10504000A169FDF741FD102233A8A169FDF73CFDE0
:105050003B4629A924A8A269FDF7B4FE3B461FA937
:1050600033A8A269FDF7AEFED4F818C000204FF4B3
:105070000051BCF1000FC8BF1FAA0BDD02EB4003BB
:1050800032F910E0B3F90230801CA3EB0E0319448F
:105090008445F3DCD4F8840015AA40F82510B4F94F
:1050A000380029A9A369FCF75CFFB4F93A0000288D
:1050B00005DB10AA29A9A369FCF753FF0CE0A1693D
:1050C00000200029C4BF10AA002105DD22F810101D
:1050D000A369401C8342F9DCE168002D4FF0000019
:1050E0007ED00029C8BF6A1E0CDD02FB010338997F
:1050F00031F8131029F8101028F81010E168401C3E
:105100008142F2DCA16FA069CDE90001029742461D
:105110001FA91046E368FBF7F7FAD4F88C000028C3
:1051200008BF4FEA6B0BA069CDF800B0CDE90107CD
:1051300010AA15A91FA8419BFCF72EFFE06858454F
:10514000C8BF002007DD419921F81B00E1680BF181
:10515000010B5945F7DCA1690020002909DDA16E8A
:1051600051F82010490046F82010A169401C8142E6
:10517000F5DCE16800200029C8BF002106DD3A9A6D
:1051800022F81010E268401C8242F8DCA069CDE9E8
:1051900000063A9A0297E3681FA91046FBF7CBF87E
:1051A000A1690020002909DDE16E51F820104900B5
:1051B00046F82010A169401C8142F5DC0846E168F0
:1051C000CDE90010CDE902673A9B10AA15A918464F
:1051D000FBF71EF8A169002000290ADDE16E00E05E
:1051E00017E051F8201046F82010A169401C8142B8
:1051F000F4DC0846E168CDE900104B4610AA15A979
:105200001846CDE90267FBF703F8D4F88C00E0B943
:105210000EE000297FF776AF616C31F8101029F8A5
:10522000101028F81010E168401C8142F4DC69E796
:10523000A1690020002908DDE26E56F8201042F82E
:105240002010A169401C8142F6DCE16800200029A1
:10525000C8BF0F4B21DD3A9939F9102031F91010F0
:10526000491CA2EB6101B1F5004FA8BF47F6FF71E1
:1052700003DA11F5004FD8BF1946409A22F81010F2
:10528000401C07E0CDCCFFFF981901000C910008ED
:105290000180FFFFE1688142DDDC49004298FBF7B5
:1052A00008FAA26AD4E90710002A1CBF049A9042A7
:1052B000C8BF1046DDF810C10DF1300ED4F88C20B7
:1052C0000023D4F894B08EE80C18DDE94123DDF812
:1052D00030C1CDE908C7CDE90A32A369E268DDF83B
:1052E0000CC1CDE90632CDE9040CD4E9270215AB97
:1052F00050F8220010AA006ACDE9002ACDE9020187
:105300001FAA4946409800F053FE616B41F8250002
:10531000E06881003998FBF7CCF900205AF820208A
:1053200038F8101002F58052A1EB623128F8101005
:10533000401C2828F2DB4046E168FDF70CF848994C
:1053400001EB8031479891FBF0F0B0F5004FB4BF0E
:1053500000B247F6FF7002225C4901F0AFFA8346C3
:10536000014601224C9801F06FFB5949E36831F97D
:105370001B00469900FB01F24599484300EBA2301F
:10538000409983460246084601F0B0FAD4E9270165
:10539000D4F88C3050F821004C9A0DF1040EC168FD
:1053A000CDE90731CDE90527A169DDF804C1399BB5
:1053B000E2688EE80E10C06A009010AB15AA1FA913
:1053C000409801F06BFC39995A46E368084601F0B1
:1053D000EFFA4FF400430020C3F1000C0CF1010E72
:1053E0009A1039995AF820B051F8201002EB4B0B63
:1053F0005944B3EBA13FD8BF47F6FF7104DDBCEBC6
:10540000A13FACBF71468913DDF808B12BF810102D
:10541000401C2828E5DBD4F8880038B1E1683998C9
:10542000FCF74CFFD4F8881021F81500A06EA16994
:10543000CDE9001002974A461FA9E3684298FAF79F
:105440007AFFD4F88C0060B1E268A069E16ECDE922
:105450000020CDE902174B4610AA15A91846FAF705
:10546000D7FE20696D1CA8423FF7C9AD00201AA9DC
:105470002EAAD4F860C031F810302CF81030D4F8CF
:1054800064C032F810302CF81030401C0A28F0DBD1
:1054900000256560A1686069389B421A03EB8101B1
:1054A000A1EB40015200606CFBF7DCF8D4E9271057
:1054B000084A51F82010496A914219BF0028A56294
:1054C0000120A06201204DB0BDE8F08F04910008DA
:1054D000069100085359000870B51546002282B0A5
:1054E00004461A2971D012DCA1F10300172880F0BC
:1054F0002581DFE800F02A36F12C332C33F1F1F16D
:10550000F1F1F14A52556BF1F1F1F18084002D294E
:1055100008BFD0F8AC0000F0D9800BDCA1F124006A
:10552000092880F00B81DFE800F0BBBFD7C2C6CFEF
:10553000D7D7D300A1F16400072880F0FF80DFE80F
:1055400000F0CCDBFDFDF1F4F800A068BEE02868B7
:10555000C4F8A000C4F8A40000F0EDB8D4F8A0008E
:10556000B4E028680028B8BF002002DB0A28C8BFC2
:105570000A202168602202EB800009680858C4F8FC
:10558000A000C4F8A40000F0D6B82868C4F88C00C5
:105590000028B8BFC4F88C20CDE0D4F88C0095E08A
:1055A0000A2000902D686A460421204601F041FB44
:1055B00001AA1321204601F03CFB0198A8426EDDB0
:1055C0000098401E0090EED5B5E01BE0D4E927011D
:1055D00050F8210038B1406BD4F890104843A168CE
:1055E00090FBF1F072E0D4F89000A16800EB80002D
:1055F00090FBF1F06AE02868C4F890009BE0D4F8D2
:10560000900063E00120A0626060A1690020002991
:105610000FDD411C09B246F288435943A3695B1C64
:1056200091FBF3F1236E23F81010A169401C814215
:10563000EFDC002000290FDD616F41F82020A16E12
:1056400041F82020216F41F82020E16E41F8202010
:10565000A169401C8142EFDC236AA1680020194443
:10566000491C00290CDD216D21F81020A16C21F8C6
:105670001020236AA168401C1944491C8142F2DCB5
:10568000A36861690020C91A002954DD616C21F802
:105690001020A3686169401CC91A8142F6DC4AE007
:1056A0002868C4F8980046E0D4F898000EE0A16895
:1056B0006069401A0AE02868C4F894006428C4BFEE
:1056C0006420C4F8940036E0D4F89400286032E0F6
:1056D0002868C4F8AC002EE030E0216900200029E1
:1056E00029DDD4F8841051F8201045F820102169E4
:1056F000401C8142F5DC1EE02069002600281ADDEE
:10570000E168E06C01FB06F200EB4200FCF723FECF
:1057100025F816002069761CB042F1DC0BE008E0A9
:1057200003E0FFE7C4F8885005E02868C4F8A80043
:1057300001E0206C286002B0002070BD02B04FF084
:10574000FF3070BD10B50446006CFCF7E1FA606CE8
:10575000FCF7DEFAA06CFCF7DBFA606EFCF7D8FA17
:10576000206DFCF7D5FA206EFCF7D2FAA06EFCF79C
:10577000CFFAE06EFCF7CCFA206FFCF7C9FA606F45
:10578000FCF7C6FAA06FFCF7C3FAD4F88400FCF764
:10579000BFFA606BFCF7BCFA2046BDE81040FCF78E
:1057A000B7BA00002DE9F04106460568B020012196
:1057B000FAF78AFF040008BFBDE8F08140F6B83070
:1057C0000121FAF781FF266020642868A060D5E9EE
:1057D000001291FBF2F121616968E16001446161AD
:1057E000AA68A261AA8A2287EA8A6287EA68E261D5
:1057F0002A6922622A8BA28705F11C02C4F89C2028
:10580000EA6D0126C4F8A420A662C4F89860C4F822
:10581000A020081AB202400031466262FAF754FF33
:105820006064296928680227084440000121001D9E
:10583000FAF74AFFA06429694FF0040808EB410118
:105840000844E06429692868084440000121001DDB
:10585000FAF73AFF2065296908EB410108446065C1
:105860002D48A0652D48E065A06901214000FAF7A8
:105870002BFF2066A06901214000FAF725FF666032
:105880006066A169002000290FDD411C09B246F2C3
:1058900088425143A269521C91FBF2F1226E22F818
:1058A0001010A169401C8142EFDC88000121FAF749
:1058B0000BFFA066A06901218000FAF705FFE066F2
:1058C000A06901218000FAF7FFFE2067A06901218D
:1058D0008000FAF7F9FE6067A06901218000FAF7FD
:1058E000F3FEA067206901218000FAF7EDFE002594
:1058F000C4E92105206901218000FAF7E5FEC4F81A
:10590000947060634FF4FA50C4E92370C4E92A56D6
:105910002046BDE8F08100009C8C0008868C0008C1
:10592000002908BF006811D001291CBF4FF0FF30CB
:1059300070471168002908BF052007D000EB8100DF
:10594000C06900280CBF4FF0FF30406B1060002092
:105950007047F0B585B007461098DDE90C45C0F1F9
:10596000020606F00106304400EB4400DDF82CC0CE
:10597000664200EB4606CDE902C0CDE90064384638
:1059800000F046FF0021002C0ADD55F8210036F911
:10599000112000EB022045F82100491C8C42F4DC68
:1059A00005B061003846BDE8F040FAF782BE30B479
:1059B000002405464FF0010C002B0ADD55F82400A9
:1059C0000028B8BF40426045A8BF8446641C9C4282
:1059D000F4DB0020944504DD4FEA6C0C401C944538
:1059E000FADC0022002BDCBF30BC704755F822C027
:1059F0004CFA00FC21F812C0521C9342F6DC30BC79
:105A0000704700002DE9FF4F8BB08246DDE91A4058
:105A10000E4600210291C0F1020101F0010108448B
:105A20000D99189D8A1B00EB42005142801C079281
:105A300000EB4102921E0392C0F1020202F0010249
:105A40001044079A9B4600EB4200801C00EB410289
:105A5000971EC0F1040202F003021044079A00EB03
:105A60008200001D00EB8101091F04910091C0F12B
:105A7000040101F00301084400EB84006142C0F11D
:105A8000040200EB810902F00302104400EB8400E1
:105A900000EB81080020002CC4BF4FF0FF31002232
:105AA00008DD49F8201048F8202045F82060401C07
:105AB0008442F6DC0D98404208908345C4BF43F60B
:105AC000FF7251000ADD3AF9103013448B4202D9BB
:105AD0000120029004E0401C5845F4DB029850B1CC
